{"abi":[{"type":"function","name":"complexFunction","inputs":[{"name":"sampleInput","type":"uint256","internalType":"uint256"},{"name":"sampleInput2","type":"uint256","internalType":"uint256"},{"name":"sampleInput3","type":"uint256","internalType":"uint256"},{"name":"sampleStruct","type":"tuple","internalType":"struct SampleContract.Struct","components":[{"name":"sampleInput","type":"uint256","internalType":"uint256"},{"name":"sampleInput2","type":"uint256","internalType":"uint256"},{"name":"sampleInput3","type":"uint256","internalType":"uint256"}]}],"outputs":[],"stateMutability":"nonpayable"},{"type":"function","name":"sampleFailReturnEmptyData","inputs":[],"outputs":[],"stateMutability":"nonpayable"},{"type":"function","name":"sampleFailWithAssert","inputs":[],"outputs":[],"stateMutability":"nonpayable"},{"type":"function","name":"sampleFailWithCustomError","inputs":[],"outputs":[],"stateMutability":"nonpayable"},{"type":"function","name":"sampleFailWithPanic","inputs":[],"outputs":[],"stateMutability":"nonpayable"},{"type":"function","name":"sampleFailWithRequire","inputs":[],"outputs":[],"stateMutability":"nonpayable"},{"type":"function","name":"sampleFunction","inputs":[{"name":"sampleInput","type":"uint256","internalType":"uint256"}],"outputs":[],"stateMutability":"nonpayable"},{"type":"error","name":"SampleError","inputs":[{"name":"message","type":"string","internalType":"string"}]}],"bytecode":{"object":"0x6080604052348015600e575f80fd5b506105878061001c5f395ff3fe608060405234801561000f575f80fd5b506004361061007b575f3560e01c806368b3ad3b1161005957806368b3ad3b146100c1578063794a433b146100cb57806390dca6f6146100d5578063dfb827b8146100df5761007b565b80630786ca731461007f57806331d986431461008957806354fe8112146100a5575b5f80fd5b6100876100e9565b005b6100a3600480360381019061009e91906102f8565b6100fb565b005b6100bf60048036038101906100ba919061035c565b610128565b005b6100c961013a565b005b6100d3610175565b005b6100dd610179565b005b6100e76101bb565b005b5f8060016100f791906103e1565b5050565b60018160200151825f01516101109190610411565b61011a9190610411565b815f01818152505050505050565b6001816101359190610411565b905050565b6040517fd7f75eac00000000000000000000000000000000000000000000000000000000815260040161016c9061049e565b60405180910390fd5b5f80fd5b5f6101b9576040517f08c379a00000000000000000000000000000000000000000000000000000000081526004016101b090610506565b60405180910390fd5b565b5f6101c9576101c8610524565b5b565b5f604051905090565b5f80fd5b5f819050919050565b6101ea816101d8565b81146101f4575f80fd5b50565b5f81359050610205816101e1565b92915050565b5f80fd5b5f601f19601f8301169050919050565b7f4e487b71000000000000000000000000000000000000000000000000000000005f52604160045260245ffd5b6102558261020f565b810181811067ffffffffffffffff821117156102745761027361021f565b5b80604052505050565b5f6102866101cb565b9050610292828261024c565b919050565b5f606082840312156102ac576102ab61020b565b5b6102b6606061027d565b90505f6102c5848285016101f7565b5f8301525060206102d8848285016101f7565b60208301525060406102ec848285016101f7565b60408301525092915050565b5f805f8060c085870312156103105761030f6101d4565b5b5f61031d878288016101f7565b945050602061032e878288016101f7565b935050604061033f878288016101f7565b925050606061035087828801610297565b91505092959194509250565b5f60208284031215610371576103706101d4565b5b5f61037e848285016101f7565b91505092915050565b7f4e487b71000000000000000000000000000000000000000000000000000000005f52601260045260245ffd5b7f4e487b71000000000000000000000000000000000000000000000000000000005f52601160045260245ffd5b5f6103eb826101d8565b91506103f6836101d8565b92508261040657610405610387565b5b828204905092915050565b5f61041b826101d8565b9150610426836101d8565b925082820190508082111561043e5761043d6103b4565b5b92915050565b5f82825260208201905092915050565b7f53616d706c65206661696c207769746820637573746f6d206572726f720000005f82015250565b5f610488601d83610444565b915061049382610454565b602082019050919050565b5f6020820190508181035f8301526104b58161047c565b9050919050565b7f53616d706c65206661696c2077697468207265717569726500000000000000005f82015250565b5f6104f0601883610444565b91506104fb826104bc565b602082019050919050565b5f6020820190508181035f83015261051d816104e4565b9050919050565b7f4e487b71000000000000000000000000000000000000000000000000000000005f52600160045260245ffdfea2646970667358221220c5ab0cedaed88afd7419dc4008bae5a0862b8eae8e8160b5dfdcd32c2dc9d86164736f6c63430008190033","linkReferences":{}},"methodIdentifiers":{"complexFunction(uint256,uint256,uint256,(uint256,uint256,uint256))":"31d98643","sampleFailReturnEmptyData()":"794a433b","sampleFailWithAssert()":"dfb827b8","sampleFailWithCustomError()":"68b3ad3b","sampleFailWithPanic()":"0786ca73","sampleFailWithRequire()":"90dca6f6","sampleFunction(uint256)":"54fe8112"},"id":40}