{"abi":[{"type":"function","name":"abs","inputs":[{"name":"n","type":"int256","internalType":"int256"}],"outputs":[{"name":"","type":"uint256","internalType":"uint256"}],"stateMutability":"pure"},{"type":"function","name":"abs","inputs":[{"name":"n","type":"int128","internalType":"int128"}],"outputs":[{"name":"","type":"int128","internalType":"int128"}],"stateMutability":"pure"},{"type":"function","name":"assertRevertReasonEqual","inputs":[{"name":"returnData","type":"bytes","internalType":"bytes"},{"name":"reason","type":"string","internalType":"string"}],"outputs":[],"stateMutability":"nonpayable"},{"type":"function","name":"assertRevertReasonEqual","inputs":[{"name":"returnData","type":"bytes","internalType":"bytes"},{"name":"reason1","type":"string","internalType":"string"},{"name":"reason2","type":"string","internalType":"string"},{"name":"reason3","type":"string","internalType":"string"},{"name":"reason4","type":"string","internalType":"string"}],"outputs":[],"stateMutability":"nonpayable"},{"type":"function","name":"assertRevertReasonEqual","inputs":[{"name":"returnData","type":"bytes","internalType":"bytes"},{"name":"reason1","type":"string","internalType":"string"},{"name":"reason2","type":"string","internalType":"string"},{"name":"reason3","type":"string","internalType":"string"}],"outputs":[],"stateMutability":"nonpayable"},{"type":"function","name":"assertRevertReasonEqual","inputs":[{"name":"returnData","type":"bytes","internalType":"bytes"},{"name":"reason1","type":"string","internalType":"string"},{"name":"reason2","type":"string","internalType":"string"}],"outputs":[],"stateMutability":"nonpayable"},{"type":"function","name":"assertRevertReasonNotEqual","inputs":[{"name":"returnData","type":"bytes","internalType":"bytes"},{"name":"reason","type":"string","internalType":"string"}],"outputs":[],"stateMutability":"nonpayable"},{"type":"function","name":"clamp","inputs":[{"name":"value","type":"uint256","internalType":"uint256"},{"name":"low","type":"uint256","internalType":"uint256"},{"name":"high","type":"uint256","internalType":"uint256"},{"name":"enableLogs","type":"bool","internalType":"bool"}],"outputs":[{"name":"","type":"uint256","internalType":"uint256"}],"stateMutability":"nonpayable"},{"type":"function","name":"clamp","inputs":[{"name":"value","type":"int256","internalType":"int256"},{"name":"low","type":"int256","internalType":"int256"},{"name":"high","type":"int256","internalType":"int256"},{"name":"enableLogs","type":"bool","internalType":"bool"}],"outputs":[{"name":"","type":"int256","internalType":"int256"}],"stateMutability":"nonpayable"},{"type":"function","name":"clamp","inputs":[{"name":"value","type":"int256","internalType":"int256"},{"name":"low","type":"int256","internalType":"int256"},{"name":"high","type":"int256","internalType":"int256"}],"outputs":[{"name":"","type":"int256","internalType":"int256"}],"stateMutability":"nonpayable"},{"type":"function","name":"clamp","inputs":[{"name":"value","type":"uint256","internalType":"uint256"},{"name":"low","type":"uint256","internalType":"uint256"},{"name":"high","type":"uint256","internalType":"uint256"}],"outputs":[{"name":"","type":"uint256","internalType":"uint256"}],"stateMutability":"nonpayable"},{"type":"function","name":"clampGt","inputs":[{"name":"a","type":"uint256","internalType":"uint256"},{"name":"b","type":"uint256","internalType":"uint256"},{"name":"enableLogs","type":"bool","internalType":"bool"}],"outputs":[{"name":"","type":"uint256","internalType":"uint256"}],"stateMutability":"nonpayable"},{"type":"function","name":"clampGt","inputs":[{"name":"a","type":"int256","internalType":"int256"},{"name":"b","type":"int256","internalType":"int256"},{"name":"enableLogs","type":"bool","internalType":"bool"}],"outputs":[{"name":"","type":"int256","internalType":"int256"}],"stateMutability":"nonpayable"},{"type":"function","name":"clampGt","inputs":[{"name":"a","type":"int256","internalType":"int256"},{"name":"b","type":"int256","internalType":"int256"}],"outputs":[{"name":"","type":"int256","internalType":"int256"}],"stateMutability":"nonpayable"},{"type":"function","name":"clampGt","inputs":[{"name":"a","type":"uint256","internalType":"uint256"},{"name":"b","type":"uint256","internalType":"uint256"}],"outputs":[{"name":"","type":"uint256","internalType":"uint256"}],"stateMutability":"nonpayable"},{"type":"function","name":"clampGte","inputs":[{"name":"a","type":"int256","internalType":"int256"},{"name":"b","type":"int256","internalType":"int256"},{"name":"enableLogs","type":"bool","internalType":"bool"}],"outputs":[{"name":"","type":"int256","internalType":"int256"}],"stateMutability":"nonpayable"},{"type":"function","name":"clampGte","inputs":[{"name":"a","type":"uint256","internalType":"uint256"},{"name":"b","type":"uint256","internalType":"uint256"},{"name":"enableLogs","type":"bool","internalType":"bool"}],"outputs":[{"name":"","type":"uint256","internalType":"uint256"}],"stateMutability":"nonpayable"},{"type":"function","name":"clampGte","inputs":[{"name":"a","type":"int256","internalType":"int256"},{"name":"b","type":"int256","internalType":"int256"}],"outputs":[{"name":"","type":"int256","internalType":"int256"}],"stateMutability":"nonpayable"},{"type":"function","name":"clampGte","inputs":[{"name":"a","type":"uint256","internalType":"uint256"},{"name":"b","type":"uint256","internalType":"uint256"}],"outputs":[{"name":"","type":"uint256","internalType":"uint256"}],"stateMutability":"nonpayable"},{"type":"function","name":"clampLt","inputs":[{"name":"a","type":"int256","internalType":"int256"},{"name":"b","type":"int256","internalType":"int256"},{"name":"enableLogs","type":"bool","internalType":"bool"}],"outputs":[{"name":"","type":"int256","internalType":"int256"}],"stateMutability":"nonpayable"},{"type":"function","name":"clampLt","inputs":[{"name":"a","type":"uint256","internalType":"uint256"},{"name":"b","type":"uint256","internalType":"uint256"},{"name":"enableLogs","type":"bool","internalType":"bool"}],"outputs":[{"name":"","type":"uint256","internalType":"uint256"}],"stateMutability":"nonpayable"},{"type":"function","name":"clampLt","inputs":[{"name":"a","type":"int256","internalType":"int256"},{"name":"b","type":"int256","internalType":"int256"}],"outputs":[{"name":"","type":"int256","internalType":"int256"}],"stateMutability":"nonpayable"},{"type":"function","name":"clampLt","inputs":[{"name":"a","type":"uint256","internalType":"uint256"},{"name":"b","type":"uint256","internalType":"uint256"}],"outputs":[{"name":"","type":"uint256","internalType":"uint256"}],"stateMutability":"nonpayable"},{"type":"function","name":"clampLte","inputs":[{"name":"a","type":"int256","internalType":"int256"},{"name":"b","type":"int256","internalType":"int256"},{"name":"enableLogs","type":"bool","internalType":"bool"}],"outputs":[{"name":"","type":"int256","internalType":"int256"}],"stateMutability":"nonpayable"},{"type":"function","name":"clampLte","inputs":[{"name":"a","type":"int256","internalType":"int256"},{"name":"b","type":"int256","internalType":"int256"}],"outputs":[{"name":"","type":"int256","internalType":"int256"}],"stateMutability":"nonpayable"},{"type":"function","name":"clampLte","inputs":[{"name":"a","type":"uint256","internalType":"uint256"},{"name":"b","type":"uint256","internalType":"uint256"}],"outputs":[{"name":"","type":"uint256","internalType":"uint256"}],"stateMutability":"nonpayable"},{"type":"function","name":"clampLte","inputs":[{"name":"a","type":"uint256","internalType":"uint256"},{"name":"b","type":"uint256","internalType":"uint256"},{"name":"enableLogs","type":"bool","internalType":"bool"}],"outputs":[{"name":"","type":"uint256","internalType":"uint256"}],"stateMutability":"nonpayable"},{"type":"function","name":"diff","inputs":[{"name":"a","type":"int256","internalType":"int256"},{"name":"b","type":"int256","internalType":"int256"}],"outputs":[{"name":"","type":"uint256","internalType":"uint256"}],"stateMutability":"pure"},{"type":"function","name":"diff","inputs":[{"name":"a","type":"uint256","internalType":"uint256"},{"name":"b","type":"uint256","internalType":"uint256"}],"outputs":[{"name":"","type":"uint256","internalType":"uint256"}],"stateMutability":"pure"},{"type":"function","name":"eq","inputs":[{"name":"a","type":"int256","internalType":"int256"},{"name":"b","type":"int256","internalType":"int256"},{"name":"reason","type":"string","internalType":"string"}],"outputs":[],"stateMutability":"nonpayable"},{"type":"function","name":"eq","inputs":[{"name":"a","type":"address","internalType":"address"},{"name":"b","type":"address","internalType":"address"},{"name":"reason","type":"string","internalType":"string"}],"outputs":[],"stateMutability":"nonpayable"},{"type":"function","name":"eq","inputs":[{"name":"a","type":"bytes4","internalType":"bytes4"},{"name":"b","type":"bytes4","internalType":"bytes4"},{"name":"reason","type":"string","internalType":"string"}],"outputs":[],"stateMutability":"nonpayable"},{"type":"function","name":"eq","inputs":[{"name":"a","type":"uint256","internalType":"uint256"},{"name":"b","type":"uint256","internalType":"uint256"},{"name":"reason","type":"string","internalType":"string"}],"outputs":[],"stateMutability":"nonpayable"},{"type":"function","name":"eq","inputs":[{"name":"a","type":"bool","internalType":"bool"},{"name":"b","type":"bool","internalType":"bool"},{"name":"reason","type":"string","internalType":"string"}],"outputs":[],"stateMutability":"nonpayable"},{"type":"function","name":"errAllow","inputs":[{"name":"errorSelector","type":"bytes4","internalType":"bytes4"},{"name":"allowedErrors","type":"bytes4[]","internalType":"bytes4[]"},{"name":"message","type":"string","internalType":"string"}],"outputs":[],"stateMutability":"nonpayable"},{"type":"function","name":"errsAllow","inputs":[{"name":"errorSelector","type":"bytes4","internalType":"bytes4"},{"name":"allowedErrors","type":"bytes4[]","internalType":"bytes4[]"},{"name":"messages","type":"string[]","internalType":"string[]"}],"outputs":[],"stateMutability":"nonpayable"},{"type":"function","name":"gt","inputs":[{"name":"a","type":"uint256","internalType":"uint256"},{"name":"b","type":"uint256","internalType":"uint256"},{"name":"reason","type":"string","internalType":"string"}],"outputs":[],"stateMutability":"nonpayable"},{"type":"function","name":"gt","inputs":[{"name":"a","type":"int256","internalType":"int256"},{"name":"b","type":"int256","internalType":"int256"},{"name":"reason","type":"string","internalType":"string"}],"outputs":[],"stateMutability":"nonpayable"},{"type":"function","name":"gte","inputs":[{"name":"a","type":"int256","internalType":"int256"},{"name":"b","type":"int256","internalType":"int256"},{"name":"reason","type":"string","internalType":"string"}],"outputs":[],"stateMutability":"nonpayable"},{"type":"function","name":"gte","inputs":[{"name":"a","type":"uint256","internalType":"uint256"},{"name":"b","type":"uint256","internalType":"uint256"},{"name":"reason","type":"string","internalType":"string"}],"outputs":[],"stateMutability":"nonpayable"},{"type":"function","name":"log","inputs":[{"name":"message","type":"string","internalType":"string"},{"name":"data","type":"bytes","internalType":"bytes"}],"outputs":[],"stateMutability":"nonpayable"},{"type":"function","name":"log","inputs":[{"name":"message","type":"string","internalType":"string"},{"name":"data","type":"address","internalType":"address"}],"outputs":[],"stateMutability":"nonpayable"},{"type":"function","name":"log","inputs":[{"name":"message","type":"string","internalType":"string"},{"name":"data","type":"bytes32","internalType":"bytes32"}],"outputs":[],"stateMutability":"nonpayable"},{"type":"function","name":"log","inputs":[{"name":"message","type":"string","internalType":"string"},{"name":"data","type":"int256","internalType":"int256"}],"outputs":[],"stateMutability":"nonpayable"},{"type":"function","name":"log","inputs":[{"name":"message","type":"string","internalType":"string"}],"outputs":[],"stateMutability":"nonpayable"},{"type":"function","name":"log","inputs":[{"name":"message","type":"string","internalType":"string"},{"name":"data","type":"string","internalType":"string"}],"outputs":[],"stateMutability":"nonpayable"},{"type":"function","name":"log","inputs":[{"name":"message","type":"string","internalType":"string"},{"name":"data","type":"uint256","internalType":"uint256"}],"outputs":[],"stateMutability":"nonpayable"},{"type":"function","name":"log","inputs":[{"name":"message","type":"string","internalType":"string"},{"name":"data","type":"bool","internalType":"bool"}],"outputs":[],"stateMutability":"nonpayable"},{"type":"function","name":"logFail","inputs":[{"name":"message","type":"string","internalType":"string"},{"name":"data","type":"bool","internalType":"bool"}],"outputs":[],"stateMutability":"nonpayable"},{"type":"function","name":"logFail","inputs":[{"name":"message","type":"string","internalType":"string"},{"name":"data","type":"bytes32","internalType":"bytes32"}],"outputs":[],"stateMutability":"nonpayable"},{"type":"function","name":"logFail","inputs":[{"name":"message","type":"string","internalType":"string"},{"name":"data","type":"uint256","internalType":"uint256"}],"outputs":[],"stateMutability":"nonpayable"},{"type":"function","name":"logFail","inputs":[{"name":"message","type":"string","internalType":"string"},{"name":"data","type":"string","internalType":"string"}],"outputs":[],"stateMutability":"nonpayable"},{"type":"function","name":"logFail","inputs":[{"name":"message","type":"string","internalType":"string"},{"name":"data","type":"int256","internalType":"int256"}],"outputs":[],"stateMutability":"nonpayable"},{"type":"function","name":"logFail","inputs":[{"name":"message","type":"string","internalType":"string"}],"outputs":[],"stateMutability":"nonpayable"},{"type":"function","name":"logFail","inputs":[],"outputs":[],"stateMutability":"nonpayable"},{"type":"function","name":"logFail","inputs":[{"name":"message","type":"string","internalType":"string"},{"name":"data","type":"address","internalType":"address"}],"outputs":[],"stateMutability":"nonpayable"},{"type":"function","name":"logFail","inputs":[{"name":"message","type":"string","internalType":"string"},{"name":"data","type":"bytes","internalType":"bytes"}],"outputs":[],"stateMutability":"nonpayable"},{"type":"function","name":"lt","inputs":[{"name":"a","type":"uint256","internalType":"uint256"},{"name":"b","type":"uint256","internalType":"uint256"},{"name":"reason","type":"string","internalType":"string"}],"outputs":[],"stateMutability":"nonpayable"},{"type":"function","name":"lt","inputs":[{"name":"a","type":"int256","internalType":"int256"},{"name":"b","type":"int256","internalType":"int256"},{"name":"reason","type":"string","internalType":"string"}],"outputs":[],"stateMutability":"nonpayable"},{"type":"function","name":"lte","inputs":[{"name":"a","type":"int256","internalType":"int256"},{"name":"b","type":"int256","internalType":"int256"},{"name":"reason","type":"string","internalType":"string"}],"outputs":[],"stateMutability":"nonpayable"},{"type":"function","name":"lte","inputs":[{"name":"a","type":"uint256","internalType":"uint256"},{"name":"b","type":"uint256","internalType":"uint256"},{"name":"reason","type":"string","internalType":"string"}],"outputs":[],"stateMutability":"nonpayable"},{"type":"function","name":"max","inputs":[{"name":"a","type":"uint256","internalType":"uint256"},{"name":"b","type":"uint256","internalType":"uint256"}],"outputs":[{"name":"","type":"uint256","internalType":"uint256"}],"stateMutability":"pure"},{"type":"function","name":"max","inputs":[{"name":"a","type":"int256","internalType":"int256"},{"name":"b","type":"int256","internalType":"int256"}],"outputs":[{"name":"","type":"int256","internalType":"int256"}],"stateMutability":"pure"},{"type":"function","name":"min","inputs":[{"name":"a","type":"uint256","internalType":"uint256"},{"name":"b","type":"uint256","internalType":"uint256"}],"outputs":[{"name":"","type":"uint256","internalType":"uint256"}],"stateMutability":"pure"},{"type":"function","name":"neq","inputs":[{"name":"a","type":"uint256","internalType":"uint256"},{"name":"b","type":"uint256","internalType":"uint256"},{"name":"reason","type":"string","internalType":"string"}],"outputs":[],"stateMutability":"nonpayable"},{"type":"function","name":"neq","inputs":[{"name":"a","type":"int256","internalType":"int256"},{"name":"b","type":"int256","internalType":"int256"},{"name":"reason","type":"string","internalType":"string"}],"outputs":[],"stateMutability":"nonpayable"},{"type":"function","name":"platform","inputs":[],"outputs":[{"name":"","type":"address","internalType":"contract IPlatform"}],"stateMutability":"view"},{"type":"function","name":"setPlatform","inputs":[{"name":"_platform","type":"address","internalType":"address"}],"outputs":[],"stateMutability":"nonpayable"},{"type":"function","name":"shuffleArray","inputs":[{"name":"shuffle","type":"uint256[]","internalType":"uint256[]"},{"name":"entropy","type":"uint256","internalType":"uint256"}],"outputs":[],"stateMutability":"pure"},{"type":"function","name":"t","inputs":[{"name":"b","type":"bool","internalType":"bool"},{"name":"reason","type":"string","internalType":"string"}],"outputs":[],"stateMutability":"nonpayable"},{"type":"event","name":"AssertEqFail","inputs":[{"name":"","type":"string","indexed":false,"internalType":"string"}],"anonymous":false},{"type":"event","name":"AssertFail","inputs":[{"name":"","type":"string","indexed":false,"internalType":"string"}],"anonymous":false},{"type":"event","name":"AssertGtFail","inputs":[{"name":"","type":"string","indexed":false,"internalType":"string"}],"anonymous":false},{"type":"event","name":"AssertGteFail","inputs":[{"name":"","type":"string","indexed":false,"internalType":"string"}],"anonymous":false},{"type":"event","name":"AssertLtFail","inputs":[{"name":"","type":"string","indexed":false,"internalType":"string"}],"anonymous":false},{"type":"event","name":"AssertLteFail","inputs":[{"name":"","type":"string","indexed":false,"internalType":"string"}],"anonymous":false},{"type":"event","name":"AssertNeqFail","inputs":[{"name":"","type":"string","indexed":false,"internalType":"string"}],"anonymous":false},{"type":"event","name":"AssertionFailed","inputs":[],"anonymous":false},{"type":"event","name":"AssertionFailed","inputs":[{"name":"message","type":"string","indexed":false,"internalType":"string"}],"anonymous":false},{"type":"event","name":"AssertionFailed","inputs":[{"name":"message","type":"string","indexed":false,"internalType":"string"},{"name":"data","type":"string","indexed":false,"internalType":"string"}],"anonymous":false},{"type":"event","name":"AssertionFailed","inputs":[{"name":"message","type":"string","indexed":false,"internalType":"string"},{"name":"data","type":"bytes","indexed":false,"internalType":"bytes"}],"anonymous":false},{"type":"event","name":"AssertionFailed","inputs":[{"name":"message","type":"string","indexed":false,"internalType":"string"},{"name":"data","type":"uint256","indexed":false,"internalType":"uint256"}],"anonymous":false},{"type":"event","name":"AssertionFailed","inputs":[{"name":"message","type":"string","indexed":false,"internalType":"string"},{"name":"data","type":"int256","indexed":false,"internalType":"int256"}],"anonymous":false},{"type":"event","name":"AssertionFailed","inputs":[{"name":"message","type":"string","indexed":false,"internalType":"string"},{"name":"data","type":"address","indexed":false,"internalType":"address"}],"anonymous":false},{"type":"event","name":"AssertionFailed","inputs":[{"name":"message","type":"string","indexed":false,"internalType":"string"},{"name":"data","type":"bool","indexed":false,"internalType":"bool"}],"anonymous":false},{"type":"event","name":"Clamped","inputs":[{"name":"","type":"string","indexed":false,"internalType":"string"}],"anonymous":false},{"type":"event","name":"Log","inputs":[{"name":"message","type":"string","indexed":false,"internalType":"string"}],"anonymous":false},{"type":"event","name":"LogAddress","inputs":[{"name":"message","type":"string","indexed":false,"internalType":"string"},{"name":"data","type":"address","indexed":false,"internalType":"address"}],"anonymous":false},{"type":"event","name":"LogBool","inputs":[{"name":"message","type":"string","indexed":false,"internalType":"string"},{"name":"data","type":"bool","indexed":false,"internalType":"bool"}],"anonymous":false},{"type":"event","name":"LogBytes","inputs":[{"name":"message","type":"string","indexed":false,"internalType":"string"},{"name":"data","type":"bytes","indexed":false,"internalType":"bytes"}],"anonymous":false},{"type":"event","name":"LogBytes32","inputs":[{"name":"message","type":"string","indexed":false,"internalType":"string"},{"name":"data","type":"bytes32","indexed":false,"internalType":"bytes32"}],"anonymous":false},{"type":"event","name":"LogInt","inputs":[{"name":"message","type":"string","indexed":false,"internalType":"string"},{"name":"data","type":"int256","indexed":false,"internalType":"int256"}],"anonymous":false},{"type":"event","name":"LogString","inputs":[{"name":"message","type":"string","indexed":false,"internalType":"string"},{"name":"data","type":"string","indexed":false,"internalType":"string"}],"anonymous":false},{"type":"event","name":"LogUint","inputs":[{"name":"message","type":"string","indexed":false,"internalType":"string"},{"name":"data","type":"uint256","indexed":false,"internalType":"uint256"}],"anonymous":false}],"bytecode":{"object":"0x6080604052348015600e575f80fd5b50615b5f8061001c5f395ff3fe608060405234801561000f575f80fd5b5060043610610410575f3560e01c80637e1ddd801161021e578063b60e72cc1161012e578063e01e92d2116100b6578063f09ced9711610085578063f09ced9714610d00578063f0f4b65214610d30578063f5bc3a7114610d4c578063f5c466f614610d7c578063fb9894b214610d9857610410565b8063e01e92d214610c40578063e894090d14610c70578063eef2538914610ca0578063f01ff64c14610cd057610410565b8063c3b55635116100fd578063c3b5563514610bb2578063c5df2a3714610bce578063d2a5060414610bfe578063de9b223214610c1a578063df7cd77f14610c2457610410565b8063b60e72cc14610b42578063bb35031a14610b5e578063bc8d43a814610b7a578063c0e8def214610b9657610410565b8063942732b2116101b1578063a98283e411610180578063a98283e414610a8e578063ac0c207b14610aaa578063aeef9c2114610ada578063b09c41b714610af6578063b2f9799d14610b1257610410565b8063942732b2146109f6578063953e5e8014610a125780639e42244714610a42578063a15f9f0714610a7257610410565b8063846213a1116101ed578063846213a11461097257806388e362c61461098e5780638c4fb57d146109aa5780638f5e514a146109c657610410565b80637e1ddd80146108da5780638010bad31461090a57806381fe578614610926578063841ea11c1461095657610410565b8063319af33311610324578063568c1385116102ac5780636c9764b31161027b5780636c9764b3146108125780636d5433e61461082e57806372de77b51461085e5780637ae2b5c71461087a5780637b8d0f0c146108aa57610410565b8063568c13851461078e5780635c2b80f5146107be5780636945c5ea146107da5780636ace552c146107f657610410565b80633ccb5e26116102f35780633ccb5e261461070057806341304fac1461071c57806342068767146107385780634b5c4277146107545780634bde38c81461077057610410565b8063319af333146106905780633692d61a146106ac5780633b6ddf03146106c85780633ca6268e146106e457610410565b80631b55d07c116103a7578063213cde2c11610376578063213cde2c146105c857806323cdd8e8146105e45780632d40851e146106005780632e17d472146106305780632ffde6031461066057610410565b80631b55d07c146105305780631b5ac4b5146105605780631ba0399b146105905780631fc4755e146105ac57610410565b8063084ec410116103e3578063084ec4101461049857806309fd3899146104c85780631059bfc9146104f857806314ec1cc61461051457610410565b806301b9e8271461041457806304fbe1c51461043057806306cb00111461044c57806306f823421461047c575b5f80fd5b61042e60048036038101906104299190613c33565b610dc8565b005b61044a60048036038101906104459190613cd4565b610ee4565b005b61046660048036038101906104619190613d2e565b610ef2565b6040516104739190613da1565b60405180910390f35b61049660048036038101906104919190613ded565b610fc9565b005b6104b260048036038101906104ad9190613e59565b6110e5565b6040516104bf9190613eb8565b60405180910390f35b6104e260048036038101906104dd9190613ed1565b611184565b6040516104ef9190613eb8565b60405180910390f35b610512600480360381019061050d9190613fd3565b611287565b005b61052e60048036038101906105299190613ded565b6112a4565b005b61054a60048036038101906105459190614049565b6113c0565b6040516105579190613da1565b60405180910390f35b61057a60048036038101906105759190614099565b6114ad565b6040516105879190613da1565b60405180910390f35b6105aa60048036038101906105a59190613ded565b6114ce565b005b6105c660048036038101906105c191906140f7565b6115eb565b005b6105e260048036038101906105dd9190614151565b6115f9565b005b6105fe60048036038101906105f991906141ab565b611607565b005b61061a60048036038101906106159190613e59565b611615565b6040516106279190613eb8565b60405180910390f35b61064a60048036038101906106459190614049565b6116b3565b6040516106579190613da1565b60405180910390f35b61067a60048036038101906106759190613e59565b611751565b6040516106879190613eb8565b60405180910390f35b6106aa60048036038101906106a5919061427b565b6117fb565b005b6106c660048036038101906106c191906140f7565b611809565b005b6106e260048036038101906106dd9190613ded565b611817565b005b6106fe60048036038101906106f991906142d5565b611934565b005b61071a6004803603810190610715919061432f565b611942565b005b6107366004803603810190610731919061439b565b611a8a565b005b610752600480360381019061074d9190613fd3565b611a96565b005b61076e600480360381019061076991906143e2565b611ab2565b005b610778611ac0565b60405161078591906144b3565b60405180910390f35b6107a860048036038101906107a391906144cc565b611ae3565b6040516107b59190613da1565b60405180910390f35b6107d860048036038101906107d39190613c33565b611b12565b005b6107f460048036038101906107ef919061450a565b611c2e565b005b610810600480360381019061080b91906145f9565b611c70565b005b61082c600480360381019061082791906146a8565b611d3c565b005b61084860048036038101906108439190614714565b611ede565b6040516108559190613da1565b60405180910390f35b61087860048036038101906108739190614752565b611ef6565b005b610894600480360381019061088f9190614714565b611f72565b6040516108a19190613da1565b60405180910390f35b6108c460048036038101906108bf9190614855565b611f8a565b6040516108d19190613eb8565b60405180910390f35b6108f460048036038101906108ef91906144cc565b611fa1565b6040516109019190613eb8565b60405180910390f35b610924600480360381019061091f91906148a5565b611fb6565b005b610940600480360381019061093b91906144cc565b61201e565b60405161094d9190613eb8565b60405180910390f35b610970600480360381019061096b9190613c33565b612036565b005b61098c60048036038101906109879190614979565b612153565b005b6109a860048036038101906109a39190614add565b6121a7565b005b6109c460048036038101906109bf9190613c33565b612239565b005b6109e060048036038101906109db9190614714565b612355565b6040516109ed9190613da1565b60405180910390f35b610a106004803603810190610a0b91906143e2565b612384565b005b610a2c6004803603810190610a279190613e59565b612392565b604051610a399190613eb8565b60405180910390f35b610a5c6004803603810190610a579190614b65565b61243c565b604051610a699190613da1565b60405180910390f35b610a8c6004803603810190610a879190614bb5565b612453565b005b610aa86004803603810190610aa391906142d5565b61250d565b005b610ac46004803603810190610abf91906144cc565b61251b565b604051610ad19190613eb8565b60405180910390f35b610af46004803603810190610aef919061439b565b612530565b005b610b106004803603810190610b0b9190614ced565b61253c565b005b610b2c6004803603810190610b279190614049565b6125ed565b604051610b399190613da1565b60405180910390f35b610b5c6004803603810190610b579190614151565b6126b9565b005b610b786004803603810190610b739190613c33565b6126c7565b005b610b946004803603810190610b8f9190613c33565b6127e4565b005b610bb06004803603810190610bab9190613ded565b612900565b005b610bcc6004803603810190610bc79190613cd4565b612a1c565b005b610be86004803603810190610be39190614714565b612a2a565b604051610bf59190613da1565b60405180910390f35b610c186004803603810190610c139190613ded565b612a3f565b005b610c22612b5b565b005b610c3e6004803603810190610c399190614d75565b612b65565b005b610c5a6004803603810190610c559190614e17565b612d61565b604051610c679190614e51565b60405180910390f35b610c8a6004803603810190610c859190614714565b612d85565b604051610c979190613da1565b60405180910390f35b610cba6004803603810190610cb59190614049565b612d9a565b604051610cc79190613da1565b60405180910390f35b610cea6004803603810190610ce591906144cc565b612e50565b604051610cf79190613eb8565b60405180910390f35b610d1a6004803603810190610d1591906144cc565b612e65565b604051610d279190613eb8565b60405180910390f35b610d4a6004803603810190610d45919061427b565b612e7a565b005b610d666004803603810190610d619190614714565b612e88565b604051610d739190613da1565b60405180910390f35b610d966004803603810190610d9191906141ab565b612e9b565b005b610db26004803603810190610dad9190614714565b612ea9565b604051610dbf9190613da1565b60405180910390f35b818310610edf575f610dd984612ebe565b90505f610de584612ebe565b90505f610e2983836040518060400160405280600281526020017f3e3d00000000000000000000000000000000000000000000000000000000000081525087612f0d565b90507f46d01dfbc4861b5b859d858d541e8b0046175a8dece70e24f892a3318f70e2bb81604051610e5a9190614eca565b60405180910390a15f8054906101000a900473ffffffffffffffffffffffffffffffffffffffff1673ffffffffffffffffffffffffffffffffffffffff166309ccaefb6040518163ffffffff1660e01b81526004015f6040518083038186803b158015610ec5575f80fd5b505afa158015610ed7573d5f803e3d5ffd5b505050505050505b505050565b610eee8282612f3f565b5050565b5f83851080610f0057508285115b15610fbd575f60018585610f149190614f17565b610f1e9190614f4a565b86610f299190614faa565b85610f349190614f4a565b90508215610fb4575f610f4687612ebe565b90505f610f5283612ebe565b90505f8282604051602001610f689291906150a8565b60405160208183030381529060405290507f4cb9c134519750e09450a0c38d146fed2eced02dd651ef32c9e3488faa55c6f681604051610fa89190614eca565b60405180910390a15050505b80915050610fc1565b8490505b949350505050565b8183126110e0575f610fda84612f7c565b90505f610fe684612f7c565b90505f61102a83836040518060400160405280600281526020017f3e3d00000000000000000000000000000000000000000000000000000000000081525087612f0d565b90507f46d01dfbc4861b5b859d858d541e8b0046175a8dece70e24f892a3318f70e2bb8160405161105b9190614eca565b60405180910390a15f8054906101000a900473ffffffffffffffffffffffffffffffffffffffff1673ffffffffffffffffffffffffffffffffffffffff166309ccaefb6040518163ffffffff1660e01b81526004015f6040518083038186803b1580156110c6575f80fd5b505afa1580156110d8573d5f803e3d5ffd5b505050505050505b505050565b5f82841315611179575f8390508215611170575f61110286612f7c565b90505f61110e83612f7c565b90505f82826040516020016111249291906150a8565b60405160208183030381529060405290507f4cb9c134519750e09450a0c38d146fed2eced02dd651ef32c9e3488faa55c6f6816040516111649190614eca565b60405180910390a15050505b8091505061117d565b8390505b9392505050565b5f8385128061119257508285135b1561127b575f600185856111a691906150e1565b6111b09190615121565b90505f8186886111c091906150e1565b6111ca9190615162565b90505f8112156111e35781816111e09190615121565b90505b5f81876111f09190615121565b90508415611270575f61120289612f7c565b90505f61120e83612f7c565b90505f82826040516020016112249291906150a8565b60405160208183030381529060405290507f4cb9c134519750e09450a0c38d146fed2eced02dd651ef32c9e3488faa55c6f6816040516112649190614eca565b60405180910390a15050505b80935050505061127f565b8490505b949350505050565b5f6112928383612fd6565b905061129f811583612453565b505050565b8183146113bb575f6112b584612f7c565b90505f6112c184612f7c565b90505f61130583836040518060400160405280600281526020017f213d00000000000000000000000000000000000000000000000000000000000081525087612f0d565b90507f2d2d38c9a34df9887a6dcb2a54c1f79ff8bf9c4d4cafacd7d1f7277f57baab6f816040516113369190614eca565b60405180910390a15f8054906101000a900473ffffffffffffffffffffffffffffffffffffffff1673ffffffffffffffffffffffffffffffffffffffff166309ccaefb6040518163ffffffff1660e01b81526004015f6040518083038186803b1580156113a1575f80fd5b505afa1580156113b3573d5f803e3d5ffd5b505050505050505b505050565b5f8284116114a25761140b837fffffffffffffffffffffffffffffffffffffffffffffffffffffffffffffffff6040518060800160405280605a8152602001615ad0605a9139612239565b5f6001846114199190614f4a565b90508215611499575f61142b86612ebe565b90505f61143783612ebe565b90505f828260405160200161144d9291906150a8565b60405160208183030381529060405290507f4cb9c134519750e09450a0c38d146fed2eced02dd651ef32c9e3488faa55c6f68160405161148d9190614eca565b60405180910390a15050505b809150506114a6565b8390505b9392505050565b5f808212156114c557816114c090615192565b6114c7565b815b9050919050565b818313156115e6575f6114e084612f7c565b90505f6114ec84612f7c565b90505f61153083836040518060400160405280600181526020017f3e0000000000000000000000000000000000000000000000000000000000000081525087612f0d565b90507f62bdda9a05cdbcdbf905cbad99c6ebdc098b6f0933d8f2eb3cfab7400b602514816040516115619190614eca565b60405180910390a15f8054906101000a900473ffffffffffffffffffffffffffffffffffffffff1673ffffffffffffffffffffffffffffffffffffffff166309ccaefb6040518163ffffffff1660e01b81526004015f6040518083038186803b1580156115cc575f80fd5b505afa1580156115de573d5f803e3d5ffd5b505050505050505b505050565b6115f58282613036565b5050565b6116038282613073565b5050565b61161182826130b0565b5050565b5f8284136116a8575f839050821561169f575f61163186612f7c565b90505f61163d83612f7c565b90505f82826040516020016116539291906150a8565b60405160208183030381529060405290507f4cb9c134519750e09450a0c38d146fed2eced02dd651ef32c9e3488faa55c6f6816040516116939190614eca565b60405180910390a15050505b809150506116ac565b8390505b9392505050565b5f828411611746575f839050821561173d575f6116cf86612ebe565b90505f6116db83612ebe565b90505f82826040516020016116f19291906150a8565b60405160208183030381529060405290507f4cb9c134519750e09450a0c38d146fed2eced02dd651ef32c9e3488faa55c6f6816040516117319190614eca565b60405180910390a15050505b8091505061174a565b8390505b9392505050565b5f8284126117f0575f60018461176791906150e1565b905082156117e7575f61177986612f7c565b90505f61178583612f7c565b90505f828260405160200161179b9291906150a8565b60405160208183030381529060405290507f4cb9c134519750e09450a0c38d146fed2eced02dd651ef32c9e3488faa55c6f6816040516117db9190614eca565b60405180910390a15050505b809150506117f4565b8390505b9392505050565b61180582826130ed565b5050565b6118138282613036565b5050565b8183121561192f575f61182984612f7c565b90505f61183584612f7c565b90505f61187983836040518060400160405280600181526020017f3c0000000000000000000000000000000000000000000000000000000000000081525087612f0d565b90507f94424ed24fb39638b64817c737dd443f387aaa1486614da449b6686a642d6d6c816040516118aa9190614eca565b60405180910390a15f8054906101000a900473ffffffffffffffffffffffffffffffffffffffff1673ffffffffffffffffffffffffffffffffffffffff166309ccaefb6040518163ffffffff1660e01b81526004015f6040518083038186803b158015611915575f80fd5b505afa158015611927573d5f803e3d5ffd5b505050505050505b505050565b61193e828261312a565b5050565b8173ffffffffffffffffffffffffffffffffffffffff168373ffffffffffffffffffffffffffffffffffffffff1614611a85575f61197f84613167565b90505f61198b84613167565b90505f6119cf83836040518060400160405280600281526020017f213d00000000000000000000000000000000000000000000000000000000000081525087612f0d565b90507f2d2d38c9a34df9887a6dcb2a54c1f79ff8bf9c4d4cafacd7d1f7277f57baab6f81604051611a009190614eca565b60405180910390a15f8054906101000a900473ffffffffffffffffffffffffffffffffffffffff1673ffffffffffffffffffffffffffffffffffffffff166309ccaefb6040518163ffffffff1660e01b81526004015f6040518083038186803b158015611a6b575f80fd5b505afa158015611a7d573d5f803e3d5ffd5b505050505050505b505050565b611a938161331d565b50565b5f611aa18383612fd6565b9050611aad8183612453565b505050565b611abc8282613357565b5050565b5f8054906101000a900473ffffffffffffffffffffffffffffffffffffffff1681565b5f81831215611afd578282611af891906150e1565b611b0a565b8183611b0991906150e1565b5b905092915050565b818311611c29575f611b2384612ebe565b90505f611b2f84612ebe565b90505f611b7383836040518060400160405280600281526020017f3c3d00000000000000000000000000000000000000000000000000000000000081525087612f0d565b90507f707b8c56e4c211cf1321faeb4148237062228db2fcecc9be487e83a2680e7e5081604051611ba49190614eca565b60405180910390a15f8054906101000a900473ffffffffffffffffffffffffffffffffffffffff1673ffffffffffffffffffffffffffffffffffffffff166309ccaefb6040518163ffffffff1660e01b81526004015f6040518083038186803b158015611c0f575f80fd5b505afa158015611c21573d5f803e3d5ffd5b505050505050505b505050565b805f806101000a81548173ffffffffffffffffffffffffffffffffffffffff021916908373ffffffffffffffffffffffffffffffffffffffff16021790555050565b5f60018351611c7f9190614f17565b90505b5f811115611d37575f818451611c989190614f17565b83611ca39190614faa565b90505f848381518110611cb957611cb86151d8565b5b602002602001015190505f858381518110611cd757611cd66151d8565b5b6020026020010151905080868581518110611cf557611cf46151d8565b5b60200260200101818152505081868481518110611d1557611d146151d8565b5b6020026020010181815250505050508080611d2f90615205565b915050611c82565b505050565b817bffffffffffffffffffffffffffffffffffffffffffffffffffffffff1916837bffffffffffffffffffffffffffffffffffffffffffffffffffffffff191614611ed9575f83604051602001611d93919061524c565b60405160208183030381529060405290505f83604051602001611db6919061524c565b60405160208183030381529060405290505f611dd183613394565b90505f611ddd83613394565b90505f611e2183836040518060400160405280600281526020017f213d00000000000000000000000000000000000000000000000000000000000081525089612f0d565b90507f2d2d38c9a34df9887a6dcb2a54c1f79ff8bf9c4d4cafacd7d1f7277f57baab6f81604051611e529190614eca565b60405180910390a15f8054906101000a900473ffffffffffffffffffffffffffffffffffffffff1673ffffffffffffffffffffffffffffffffffffffff166309ccaefb6040518163ffffffff1660e01b81526004015f6040518083038186803b158015611ebd575f80fd5b505afa158015611ecf573d5f803e3d5ffd5b5050505050505050505b505050565b5f818311611eec5781611eee565b825b905092915050565b5f611f018686612fd6565b80611f125750611f118685612fd6565b5b80611f235750611f228684612fd6565b5b80611f345750611f338683612fd6565b5b90505f85858585604051602001611f4e94939291906152b0565b6040516020818303038152906040529050611f698282612453565b50505050505050565b5f818310611f805781611f82565b825b905092915050565b5f611f988484846001611184565b90509392505050565b5f611fae83836001611615565b905092915050565b5f611fc18585612fd6565b80611fd25750611fd18584612fd6565b5b80611fe35750611fe28583612fd6565b5b90505f848484604051602001611ffb9392919061530e565b60405160208183030381529060405290506120168282612453565b505050505050565b5f81831361202c578161202e565b825b905092915050565b8183101561214e575f61204884612ebe565b90505f61205484612ebe565b90505f61209883836040518060400160405280600181526020017f3c0000000000000000000000000000000000000000000000000000000000000081525087612f0d565b90507f94424ed24fb39638b64817c737dd443f387aaa1486614da449b6686a642d6d6c816040516120c99190614eca565b60405180910390a15f8054906101000a900473ffffffffffffffffffffffffffffffffffffffff1673ffffffffffffffffffffffffffffffffffffffff166309ccaefb6040518163ffffffff1660e01b81526004015f6040518083038186803b158015612134575f80fd5b505afa158015612146573d5f803e3d5ffd5b505050505050505b505050565b5f61215e8484612fd6565b8061216f575061216e8483612fd6565b5b90505f8383604051602001612185929190615354565b60405160208183030381529060405290506121a08282612453565b5050505050565b5f805b8351811015612228578381815181106121c6576121c56151d8565b5b60200260200101517bffffffffffffffffffffffffffffffffffffffffffffffffffffffff1916857bffffffffffffffffffffffffffffffffffffffffffffffffffffffff19160361221b5760019150612228565b80806001019150506121aa565b506122338183612453565b50505050565b818303612350575f61224a84612ebe565b90505f61225684612ebe565b90505f61229a83836040518060400160405280600281526020017f3d3d00000000000000000000000000000000000000000000000000000000000081525087612f0d565b90507fff4de080d2384f233e1a4fb3268e8f715d8802217ad2382235900a274dde76dd816040516122cb9190614eca565b60405180910390a15f8054906101000a900473ffffffffffffffffffffffffffffffffffffffff1673ffffffffffffffffffffffffffffffffffffffff166309ccaefb6040518163ffffffff1660e01b81526004015f6040518083038186803b158015612336575f80fd5b505afa158015612348573d5f803e3d5ffd5b505050505050505b505050565b5f8183101561236f57828261236a9190614f17565b61237c565b818361237b9190614f17565b5b905092915050565b61238e828261363b565b5050565b5f828413612431575f6001846123a89190615121565b90508215612428575f6123ba86612f7c565b90505f6123c683612f7c565b90505f82826040516020016123dc9291906150a8565b60405160208183030381529060405290507f4cb9c134519750e09450a0c38d146fed2eced02dd651ef32c9e3488faa55c6f68160405161241c9190614eca565b60405180910390a15050505b80915050612435565b8390505b9392505050565b5f61244a8484846001610ef2565b90509392505050565b81612509577feb03ca8c87c7849bef8f54cfdd2c6b967b2734fe872f751978c34bb91e13d351816040516124879190614eca565b60405180910390a15f8054906101000a900473ffffffffffffffffffffffffffffffffffffffff1673ffffffffffffffffffffffffffffffffffffffff166309ccaefb6040518163ffffffff1660e01b81526004015f6040518083038186803b1580156124f2575f80fd5b505afa158015612504573d5f803e3d5ffd5b505050505b5050565b6125178282613678565b5050565b5f612528838360016110e5565b905092915050565b612539816136b5565b50565b5f805f5b84518110156125c15784818151811061255c5761255b6151d8565b5b60200260200101517bffffffffffffffffffffffffffffffffffffffffffffffffffffffff1916867bffffffffffffffffffffffffffffffffffffffffffffffffffffffff1916036125b457600192508091506125c1565b8080600101915050612540565b506125e6828483815181106125d9576125d86151d8565b5b6020026020010151612453565b5050505050565b5f8284106126ae57612618835f604051806080016040528060518152602001615a7f60519139612239565b5f83856126259190614faa565b905082156126a5575f61263786612ebe565b90505f61264383612ebe565b90505f82826040516020016126599291906150a8565b60405160208183030381529060405290507f4cb9c134519750e09450a0c38d146fed2eced02dd651ef32c9e3488faa55c6f6816040516126999190614eca565b60405180910390a15050505b809150506126b2565b8390505b9392505050565b6126c382826136ef565b5050565b818311156127df575f6126d984612ebe565b90505f6126e584612ebe565b90505f61272983836040518060400160405280600181526020017f3e0000000000000000000000000000000000000000000000000000000000000081525087612f0d565b90507f62bdda9a05cdbcdbf905cbad99c6ebdc098b6f0933d8f2eb3cfab7400b6025148160405161275a9190614eca565b60405180910390a15f8054906101000a900473ffffffffffffffffffffffffffffffffffffffff1673ffffffffffffffffffffffffffffffffffffffff166309ccaefb6040518163ffffffff1660e01b81526004015f6040518083038186803b1580156127c5575f80fd5b505afa1580156127d7573d5f803e3d5ffd5b505050505050505b505050565b8183146128fb575f6127f584612ebe565b90505f61280184612ebe565b90505f61284583836040518060400160405280600281526020017f213d00000000000000000000000000000000000000000000000000000000000081525087612f0d565b90507f2d2d38c9a34df9887a6dcb2a54c1f79ff8bf9c4d4cafacd7d1f7277f57baab6f816040516128769190614eca565b60405180910390a15f8054906101000a900473ffffffffffffffffffffffffffffffffffffffff1673ffffffffffffffffffffffffffffffffffffffff166309ccaefb6040518163ffffffff1660e01b81526004015f6040518083038186803b1580156128e1575f80fd5b505afa1580156128f3573d5f803e3d5ffd5b505050505050505b505050565b818303612a17575f61291184612f7c565b90505f61291d84612f7c565b90505f61296183836040518060400160405280600281526020017f3d3d00000000000000000000000000000000000000000000000000000000000081525087612f0d565b90507fff4de080d2384f233e1a4fb3268e8f715d8802217ad2382235900a274dde76dd816040516129929190614eca565b60405180910390a15f8054906101000a900473ffffffffffffffffffffffffffffffffffffffff1673ffffffffffffffffffffffffffffffffffffffff166309ccaefb6040518163ffffffff1660e01b81526004015f6040518083038186803b1580156129fd575f80fd5b505afa158015612a0f573d5f803e3d5ffd5b505050505050505b505050565b612a26828261372c565b5050565b5f612a3783836001612d9a565b905092915050565b818313612b56575f612a5084612f7c565b90505f612a5c84612f7c565b90505f612aa083836040518060400160405280600281526020017f3c3d00000000000000000000000000000000000000000000000000000000000081525087612f0d565b90507f707b8c56e4c211cf1321faeb4148237062228db2fcecc9be487e83a2680e7e5081604051612ad19190614eca565b60405180910390a15f8054906101000a900473ffffffffffffffffffffffffffffffffffffffff1673ffffffffffffffffffffffffffffffffffffffff166309ccaefb6040518163ffffffff1660e01b81526004015f6040518083038186803b158015612b3c575f80fd5b505afa158015612b4e573d5f803e3d5ffd5b505050505050505b505050565b612b63613769565b565b81151583151514612d5c575f83612bb1576040518060400160405280600581526020017f66616c7365000000000000000000000000000000000000000000000000000000815250612be8565b6040518060400160405280600481526020017f74727565000000000000000000000000000000000000000000000000000000008152505b90505f83612c2b576040518060400160405280600581526020017f66616c7365000000000000000000000000000000000000000000000000000000815250612c62565b6040518060400160405280600481526020017f74727565000000000000000000000000000000000000000000000000000000008152505b90505f612ca683836040518060400160405280600281526020017f213d00000000000000000000000000000000000000000000000000000000000081525087612f0d565b90507f2d2d38c9a34df9887a6dcb2a54c1f79ff8bf9c4d4cafacd7d1f7277f57baab6f81604051612cd79190614eca565b60405180910390a15f8054906101000a900473ffffffffffffffffffffffffffffffffffffffff1673ffffffffffffffffffffffffffffffffffffffff166309ccaefb6040518163ffffffff1660e01b81526004015f6040518083038186803b158015612d42575f80fd5b505afa158015612d54573d5f803e3d5ffd5b505050505050505b505050565b5f8082600f0b1215612d7c5781612d7790615382565b612d7e565b815b9050919050565b5f612d92838360016116b3565b905092915050565b5f82841115612e45575f600184612db19190614f4a565b85612dbc9190614faa565b90508215612e3c575f612dce86612ebe565b90505f612dda83612ebe565b90505f8282604051602001612df09291906150a8565b60405160208183030381529060405290507f4cb9c134519750e09450a0c38d146fed2eced02dd651ef32c9e3488faa55c6f681604051612e309190614eca565b60405180910390a15050505b80915050612e49565b8390505b9392505050565b5f612e5d83836001611751565b905092915050565b5f612e7283836001612392565b905092915050565b612e848282613797565b5050565b5f612e938383612e88565b905092915050565b612ea582826137d4565b5050565b5f612eb6838360016113c0565b905092915050565b606060a060405101806040526020810391505f825281835b600115612ef857600184039350600a81066030018453600a8104905080612ed6575b50828103602084039350808452505050919050565b606084838584604051602001612f26949392919061545c565b6040516020818303038152906040529050949350505050565b7ff9a6ee38cd6e0347cb8c6a74ff6a63ee77c626ba70466aadfa86f9272fa3b8988282604051612f709291906154be565b60405180910390a15050565b60605f80831215612f965782612f9190615192565b612f98565b825b9050612fa381612ebe565b91505f831215612fd05781604051602001612fbe9190615536565b60405160208183030381529060405291505b50919050565b5f81604051602001612fe89190615557565b6040516020818303038152906040528051906020012061300784613811565b6040516020016130179190615557565b6040516020818303038152906040528051906020012014905092915050565b7f02d93529bba9d141e5e06733c52c7e6fbcb1149586adb5c24064b522ab26f1d7828260405161306792919061557c565b60405180910390a15050565b7f9baa6cc96f4ef57470cb9af41561fd39032f77ca4a067930807bb7d0d3386cbf82826040516130a49291906155aa565b60405180910390a15050565b7fe8407a0209fa99ec3a7228aff140c3d3e68bd279391739c7e0b65cd406cc93b582826040516130e192919061562a565b60405180910390a15050565b7f62ddffe5b5108385f7a590f100e1ee414ad9551a31f089e64e82998440785e1e828260405161311e92919061566e565b60405180910390a15050565b7f6a837ff3973aa4181e7b9f07756f8b7ee366dd85a36655d2cb42cd47f10b9638828260405161315b92919061569c565b60405180910390a15050565b60605f602867ffffffffffffffff81111561318557613184613b0f565b5b6040519080825280601f01601f1916602001820160405280156131b75781602001600182028036833780820191505090505b5090505f5b6014811015613313575f8160136131d39190614f17565b60086131df91906156ca565b60026131eb919061583a565b8573ffffffffffffffffffffffffffffffffffffffff1661320c9190615884565b60f81b90505f60108260f81c61322291906158c0565b60f81b90505f8160f81c601061323891906158f0565b8360f81c613246919061592c565b60f81b905061325482613a6e565b8585600261326291906156ca565b81518110613273576132726151d8565b5b60200101907effffffffffffffffffffffffffffffffffffffffffffffffffffffffffffff191690815f1a9053506132aa81613a6e565b8560018660026132ba91906156ca565b6132c49190614f4a565b815181106132d5576132d46151d8565b5b60200101907effffffffffffffffffffffffffffffffffffffffffffffffffffffffffffff191690815f1a90535050505080806001019150506131bc565b5080915050919050565b7fcf34ef537ac33ee1ac626ca1587a0a7e8e51561e5514f8cb36afa1c5102b3bab8160405161334c9190614eca565b60405180910390a150565b7f27a8767ed172b48d7cf6dbb25d2840c5fa91ef78fa6e05c13c82763d099f03ca8282604051613388929190615960565b60405180910390a15050565b60605f6002835160026133a791906156ca565b6133b19190614f4a565b67ffffffffffffffff8111156133ca576133c9613b0f565b5b6040519080825280601f01601f1916602001820160405280156133fc5781602001600182028036833780820191505090505b5090507f3000000000000000000000000000000000000000000000000000000000000000815f81518110613433576134326151d8565b5b60200101907effffffffffffffffffffffffffffffffffffffffffffffffffffffffffffff191690815f1a9053507f780000000000000000000000000000000000000000000000000000000000000081600181518110613496576134956151d8565b5b60200101907effffffffffffffffffffffffffffffffffffffffffffffffffffffffffffff191690815f1a9053505f5b8351811015613631575f8482815181106134e3576134e26151d8565b5b602001015160f81c60f81b60f81c90507f303132333435363738396162636465660000000000000000000000000000000060048260ff16901c60ff16601081106135305761352f6151d8565b5b1a60f81b83600284600261354491906156ca565b61354e9190614f4a565b8151811061355f5761355e6151d8565b5b60200101907effffffffffffffffffffffffffffffffffffffffffffffffffffffffffffff191690815f1a9053507f3031323334353637383961626364656600000000000000000000000000000000600f821660ff16601081106135c6576135c56151d8565b5b1a60f81b8360038460026135da91906156ca565b6135e49190614f4a565b815181106135f5576135f46151d8565b5b60200101907effffffffffffffffffffffffffffffffffffffffffffffffffffffffffffff191690815f1a9053505080806001019150506134c6565b5080915050919050565b7ff169276b421e6d6b4430d1934bd14cc5436305ad11e2baa67140844bb13b7e7e828260405161366c929190615960565b60405180910390a15050565b7f4ef9664a46ffe035712aa3615617c7b5aa782326d58e8949db4bee481820419382826040516136a992919061569c565b60405180910390a15050565b7fb42604cb105a16c8f6db8a41e6b00c0c1b4826465e8bc504b3eb3e88b3e6a4a0816040516136e49190614eca565b60405180910390a150565b7f941296a39ea107bde685522318a4b6c2b544904a5dd82a512748ca2cf839bef782826040516137209291906155aa565b60405180910390a15050565b7f4c34c2f9a78632f29fa59aaed5514cb742fd9fbcfd7ccc2c03c85f2bbc621c47828260405161375d9291906154be565b60405180910390a15050565b7ff92d4a94d1d5014696dcfc65a0a061af97608eebd7fea0519ff4fdbca71bae9f60405160405180910390a1565b7fe5232ba17154fdf2ae11846af09e8bd8420aa21035026ac88db6cfb8c7b4901282826040516137c892919061566e565b60405180910390a15050565b7fadc81638cfe9dc2f2e4e4f759b26f2006a87eb612d65bcd2828f72b14c058444828260405161380592919061562a565b60405180910390a15050565b60606024825103613a05575f6040518060400160405280600e81526020017f50616e69632875696e74323536290000000000000000000000000000000000008152508051906020012090505f5b60048110156139315781816004811061387a576138796151d8565b5b1a60f81b7effffffffffffffffffffffffffffffffffffffffffffffffffffffffffffff19168482815181106138b3576138b26151d8565b5b602001015160f81c60f81b7effffffffffffffffffffffffffffffffffffffffffffffffffffffffffffff191614613924576040518060400160405280601381526020017f556e646566696e6564207369676e61747572650000000000000000000000000081525092505050613a69565b808060010191505061385e565b505f80600490505b602481101561397e57600882901b915084818151811061395c5761395b6151d8565b5b602001015160f81c60f81b60f81c60ff16821791508080600101915050613939565b50601181036139c6576040518060400160405280600981526020017f50616e696328313729000000000000000000000000000000000000000000000081525092505050613a69565b6040518060400160405280601481526020017f556e646566696e65642070616e696320636f646500000000000000000000000081525092505050613a69565b604482511015613a4c576040518060400160405280601d81526020017f5472616e73616374696f6e2072657665727465642073696c656e746c790000008152509050613a69565b60048201915081806020019051810190613a669190615a03565b90505b919050565b5f600a8260f81c60ff161015613a985760308260f81c613a8e9190615a4a565b60f81b9050613aae565b60578260f81c613aa89190615a4a565b60f81b90505b919050565b5f604051905090565b5f80fd5b5f80fd5b5f819050919050565b613ad681613ac4565b8114613ae0575f80fd5b50565b5f81359050613af181613acd565b92915050565b5f80fd5b5f80fd5b5f601f19601f8301169050919050565b7f4e487b71000000000000000000000000000000000000000000000000000000005f52604160045260245ffd5b613b4582613aff565b810181811067ffffffffffffffff82111715613b6457613b63613b0f565b5b80604052505050565b5f613b76613ab3565b9050613b828282613b3c565b919050565b5f67ffffffffffffffff821115613ba157613ba0613b0f565b5b613baa82613aff565b9050602081019050919050565b828183375f83830152505050565b5f613bd7613bd284613b87565b613b6d565b905082815260208101848484011115613bf357613bf2613afb565b5b613bfe848285613bb7565b509392505050565b5f82601f830112613c1a57613c19613af7565b5b8135613c2a848260208601613bc5565b91505092915050565b5f805f60608486031215613c4a57613c49613abc565b5b5f613c5786828701613ae3565b9350506020613c6886828701613ae3565b925050604084013567ffffffffffffffff811115613c8957613c88613ac0565b5b613c9586828701613c06565b9150509250925092565b5f8115159050919050565b613cb381613c9f565b8114613cbd575f80fd5b50565b5f81359050613cce81613caa565b92915050565b5f8060408385031215613cea57613ce9613abc565b5b5f83013567ffffffffffffffff811115613d0757613d06613ac0565b5b613d1385828601613c06565b9250506020613d2485828601613cc0565b9150509250929050565b5f805f8060808587031215613d4657613d45613abc565b5b5f613d5387828801613ae3565b9450506020613d6487828801613ae3565b9350506040613d7587828801613ae3565b9250506060613d8687828801613cc0565b91505092959194509250565b613d9b81613ac4565b82525050565b5f602082019050613db45f830184613d92565b92915050565b5f819050919050565b613dcc81613dba565b8114613dd6575f80fd5b50565b5f81359050613de781613dc3565b92915050565b5f805f60608486031215613e0457613e03613abc565b5b5f613e1186828701613dd9565b9350506020613e2286828701613dd9565b925050604084013567ffffffffffffffff811115613e4357613e42613ac0565b5b613e4f86828701613c06565b9150509250925092565b5f805f60608486031215613e7057613e6f613abc565b5b5f613e7d86828701613dd9565b9350506020613e8e86828701613dd9565b9250506040613e9f86828701613cc0565b9150509250925092565b613eb281613dba565b82525050565b5f602082019050613ecb5f830184613ea9565b92915050565b5f805f8060808587031215613ee957613ee8613abc565b5b5f613ef687828801613dd9565b9450506020613f0787828801613dd9565b9350506040613f1887828801613dd9565b9250506060613f2987828801613cc0565b91505092959194509250565b5f67ffffffffffffffff821115613f4f57613f4e613b0f565b5b613f5882613aff565b9050602081019050919050565b5f613f77613f7284613f35565b613b6d565b905082815260208101848484011115613f9357613f92613afb565b5b613f9e848285613bb7565b509392505050565b5f82601f830112613fba57613fb9613af7565b5b8135613fca848260208601613f65565b91505092915050565b5f8060408385031215613fe957613fe8613abc565b5b5f83013567ffffffffffffffff81111561400657614005613ac0565b5b61401285828601613fa6565b925050602083013567ffffffffffffffff81111561403357614032613ac0565b5b61403f85828601613c06565b9150509250929050565b5f805f606084860312156140605761405f613abc565b5b5f61406d86828701613ae3565b935050602061407e86828701613ae3565b925050604061408f86828701613cc0565b9150509250925092565b5f602082840312156140ae576140ad613abc565b5b5f6140bb84828501613dd9565b91505092915050565b5f819050919050565b6140d6816140c4565b81146140e0575f80fd5b50565b5f813590506140f1816140cd565b92915050565b5f806040838503121561410d5761410c613abc565b5b5f83013567ffffffffffffffff81111561412a57614129613ac0565b5b61413685828601613c06565b9250506020614147858286016140e3565b9150509250929050565b5f806040838503121561416757614166613abc565b5b5f83013567ffffffffffffffff81111561418457614183613ac0565b5b61419085828601613c06565b92505060206141a185828601613ae3565b9150509250929050565b5f80604083850312156141c1576141c0613abc565b5b5f83013567ffffffffffffffff8111156141de576141dd613ac0565b5b6141ea85828601613c06565b925050602083013567ffffffffffffffff81111561420b5761420a613ac0565b5b61421785828601613fa6565b9150509250929050565b5f73ffffffffffffffffffffffffffffffffffffffff82169050919050565b5f61424a82614221565b9050919050565b61425a81614240565b8114614264575f80fd5b50565b5f8135905061427581614251565b92915050565b5f806040838503121561429157614290613abc565b5b5f83013567ffffffffffffffff8111156142ae576142ad613ac0565b5b6142ba85828601613c06565b92505060206142cb85828601614267565b9150509250929050565b5f80604083850312156142eb576142ea613abc565b5b5f83013567ffffffffffffffff81111561430857614307613ac0565b5b61431485828601613c06565b925050602061432585828601613dd9565b9150509250929050565b5f805f6060848603121561434657614345613abc565b5b5f61435386828701614267565b935050602061436486828701614267565b925050604084013567ffffffffffffffff81111561438557614384613ac0565b5b61439186828701613c06565b9150509250925092565b5f602082840312156143b0576143af613abc565b5b5f82013567ffffffffffffffff8111156143cd576143cc613ac0565b5b6143d984828501613c06565b91505092915050565b5f80604083850312156143f8576143f7613abc565b5b5f83013567ffffffffffffffff81111561441557614414613ac0565b5b61442185828601613c06565b925050602083013567ffffffffffffffff81111561444257614441613ac0565b5b61444e85828601613c06565b9150509250929050565b5f819050919050565b5f61447b61447661447184614221565b614458565b614221565b9050919050565b5f61448c82614461565b9050919050565b5f61449d82614482565b9050919050565b6144ad81614493565b82525050565b5f6020820190506144c65f8301846144a4565b92915050565b5f80604083850312156144e2576144e1613abc565b5b5f6144ef85828601613dd9565b925050602061450085828601613dd9565b9150509250929050565b5f6020828403121561451f5761451e613abc565b5b5f61452c84828501614267565b91505092915050565b5f67ffffffffffffffff82111561454f5761454e613b0f565b5b602082029050602081019050919050565b5f80fd5b5f61457661457184614535565b613b6d565b9050808382526020820190506020840283018581111561459957614598614560565b5b835b818110156145c257806145ae8882613ae3565b84526020840193505060208101905061459b565b5050509392505050565b5f82601f8301126145e0576145df613af7565b5b81356145f0848260208601614564565b91505092915050565b5f806040838503121561460f5761460e613abc565b5b5f83013567ffffffffffffffff81111561462c5761462b613ac0565b5b614638858286016145cc565b925050602061464985828601613ae3565b9150509250929050565b5f7fffffffff0000000000000000000000000000000000000000000000000000000082169050919050565b61468781614653565b8114614691575f80fd5b50565b5f813590506146a28161467e565b92915050565b5f805f606084860312156146bf576146be613abc565b5b5f6146cc86828701614694565b93505060206146dd86828701614694565b925050604084013567ffffffffffffffff8111156146fe576146fd613ac0565b5b61470a86828701613c06565b9150509250925092565b5f806040838503121561472a57614729613abc565b5b5f61473785828601613ae3565b925050602061474885828601613ae3565b9150509250929050565b5f805f805f60a0868803121561476b5761476a613abc565b5b5f86013567ffffffffffffffff81111561478857614787613ac0565b5b61479488828901613fa6565b955050602086013567ffffffffffffffff8111156147b5576147b4613ac0565b5b6147c188828901613c06565b945050604086013567ffffffffffffffff8111156147e2576147e1613ac0565b5b6147ee88828901613c06565b935050606086013567ffffffffffffffff81111561480f5761480e613ac0565b5b61481b88828901613c06565b925050608086013567ffffffffffffffff81111561483c5761483b613ac0565b5b61484888828901613c06565b9150509295509295909350565b5f805f6060848603121561486c5761486b613abc565b5b5f61487986828701613dd9565b935050602061488a86828701613dd9565b925050604061489b86828701613dd9565b9150509250925092565b5f805f80608085870312156148bd576148bc613abc565b5b5f85013567ffffffffffffffff8111156148da576148d9613ac0565b5b6148e687828801613fa6565b945050602085013567ffffffffffffffff81111561490757614906613ac0565b5b61491387828801613c06565b935050604085013567ffffffffffffffff81111561493457614933613ac0565b5b61494087828801613c06565b925050606085013567ffffffffffffffff81111561496157614960613ac0565b5b61496d87828801613c06565b91505092959194509250565b5f805f606084860312156149905761498f613abc565b5b5f84013567ffffffffffffffff8111156149ad576149ac613ac0565b5b6149b986828701613fa6565b935050602084013567ffffffffffffffff8111156149da576149d9613ac0565b5b6149e686828701613c06565b925050604084013567ffffffffffffffff811115614a0757614a06613ac0565b5b614a1386828701613c06565b9150509250925092565b5f67ffffffffffffffff821115614a3757614a36613b0f565b5b602082029050602081019050919050565b5f614a5a614a5584614a1d565b613b6d565b90508083825260208201905060208402830185811115614a7d57614a7c614560565b5b835b81811015614aa65780614a928882614694565b845260208401935050602081019050614a7f565b5050509392505050565b5f82601f830112614ac457614ac3613af7565b5b8135614ad4848260208601614a48565b91505092915050565b5f805f60608486031215614af457614af3613abc565b5b5f614b0186828701614694565b935050602084013567ffffffffffffffff811115614b2257614b21613ac0565b5b614b2e86828701614ab0565b925050604084013567ffffffffffffffff811115614b4f57614b4e613ac0565b5b614b5b86828701613c06565b9150509250925092565b5f805f60608486031215614b7c57614b7b613abc565b5b5f614b8986828701613ae3565b9350506020614b9a86828701613ae3565b9250506040614bab86828701613ae3565b9150509250925092565b5f8060408385031215614bcb57614bca613abc565b5b5f614bd885828601613cc0565b925050602083013567ffffffffffffffff811115614bf957614bf8613ac0565b5b614c0585828601613c06565b9150509250929050565b5f67ffffffffffffffff821115614c2957614c28613b0f565b5b602082029050602081019050919050565b5f614c4c614c4784614c0f565b613b6d565b90508083825260208201905060208402830185811115614c6f57614c6e614560565b5b835b81811015614cb657803567ffffffffffffffff811115614c9457614c93613af7565b5b808601614ca18982613c06565b85526020850194505050602081019050614c71565b5050509392505050565b5f82601f830112614cd457614cd3613af7565b5b8135614ce4848260208601614c3a565b91505092915050565b5f805f60608486031215614d0457614d03613abc565b5b5f614d1186828701614694565b935050602084013567ffffffffffffffff811115614d3257614d31613ac0565b5b614d3e86828701614ab0565b925050604084013567ffffffffffffffff811115614d5f57614d5e613ac0565b5b614d6b86828701614cc0565b9150509250925092565b5f805f60608486031215614d8c57614d8b613abc565b5b5f614d9986828701613cc0565b9350506020614daa86828701613cc0565b925050604084013567ffffffffffffffff811115614dcb57614dca613ac0565b5b614dd786828701613c06565b9150509250925092565b5f81600f0b9050919050565b614df681614de1565b8114614e00575f80fd5b50565b5f81359050614e1181614ded565b92915050565b5f60208284031215614e2c57614e2b613abc565b5b5f614e3984828501614e03565b91505092915050565b614e4b81614de1565b82525050565b5f602082019050614e645f830184614e42565b92915050565b5f81519050919050565b5f82825260208201905092915050565b8281835e5f83830152505050565b5f614e9c82614e6a565b614ea68185614e74565b9350614eb6818560208601614e84565b614ebf81613aff565b840191505092915050565b5f6020820190508181035f830152614ee28184614e92565b905092915050565b7f4e487b71000000000000000000000000000000000000000000000000000000005f52601160045260245ffd5b5f614f2182613ac4565b9150614f2c83613ac4565b9250828203905081811115614f4457614f43614eea565b5b92915050565b5f614f5482613ac4565b9150614f5f83613ac4565b9250828201905080821115614f7757614f76614eea565b5b92915050565b7f4e487b71000000000000000000000000000000000000000000000000000000005f52601260045260245ffd5b5f614fb482613ac4565b9150614fbf83613ac4565b925082614fcf57614fce614f7d565b5b828206905092915050565b5f81905092915050565b7f436c616d70696e672076616c75652000000000000000000000000000000000005f82015250565b5f615018600f83614fda565b915061502382614fe4565b600f82019050919050565b5f61503882614e6a565b6150428185614fda565b9350615052818560208601614e84565b80840191505092915050565b7f20746f20000000000000000000000000000000000000000000000000000000005f82015250565b5f615092600483614fda565b915061509d8261505e565b600482019050919050565b5f6150b28261500c565b91506150be828561502e565b91506150c982615086565b91506150d5828461502e565b91508190509392505050565b5f6150eb82613dba565b91506150f683613dba565b925082820390508181125f8412168282135f85121516171561511b5761511a614eea565b5b92915050565b5f61512b82613dba565b915061513683613dba565b92508282019050828112155f8312168382125f84121516171561515c5761515b614eea565b5b92915050565b5f61516c82613dba565b915061517783613dba565b92508261518757615186614f7d565b5b828207905092915050565b5f61519c82613dba565b91507f800000000000000000000000000000000000000000000000000000000000000082036151ce576151cd614eea565b5b815f039050919050565b7f4e487b71000000000000000000000000000000000000000000000000000000005f52603260045260245ffd5b5f61520f82613ac4565b91505f820361522157615220614eea565b5b600182039050919050565b5f819050919050565b61524661524182614653565b61522c565b82525050565b5f6152578284615235565b60048201915081905092915050565b7f204f5220000000000000000000000000000000000000000000000000000000005f82015250565b5f61529a600483614fda565b91506152a582615266565b600482019050919050565b5f6152bb828761502e565b91506152c68261528e565b91506152d2828661502e565b91506152dd8261528e565b91506152e9828561502e565b91506152f48261528e565b9150615300828461502e565b915081905095945050505050565b5f615319828661502e565b91506153248261528e565b9150615330828561502e565b915061533b8261528e565b9150615347828461502e565b9150819050949350505050565b5f61535f828561502e565b915061536a8261528e565b9150615376828461502e565b91508190509392505050565b5f61538c82614de1565b91507fffffffffffffffffffffffffffffffff8000000000000000000000000000000082036153be576153bd614eea565b5b815f039050919050565b7f496e76616c69643a2000000000000000000000000000000000000000000000005f82015250565b5f6153fc600983614fda565b9150615407826153c8565b600982019050919050565b7f2c20726561736f6e3a20000000000000000000000000000000000000000000005f82015250565b5f615446600a83614fda565b915061545182615412565b600a82019050919050565b5f615466826153f0565b9150615472828761502e565b915061547e828661502e565b915061548a828561502e565b91506154958261543a565b91506154a1828461502e565b915081905095945050505050565b6154b881613c9f565b82525050565b5f6040820190508181035f8301526154d68185614e92565b90506154e560208301846154af565b9392505050565b7f2d000000000000000000000000000000000000000000000000000000000000005f82015250565b5f615520600183614fda565b915061552b826154ec565b600182019050919050565b5f61554082615514565b915061554c828461502e565b915081905092915050565b5f615562828461502e565b915081905092915050565b615576816140c4565b82525050565b5f6040820190508181035f8301526155948185614e92565b90506155a3602083018461556d565b9392505050565b5f6040820190508181035f8301526155c28185614e92565b90506155d16020830184613d92565b9392505050565b5f81519050919050565b5f82825260208201905092915050565b5f6155fc826155d8565b61560681856155e2565b9350615616818560208601614e84565b61561f81613aff565b840191505092915050565b5f6040820190508181035f8301526156428185614e92565b9050818103602083015261565681846155f2565b90509392505050565b61566881614240565b82525050565b5f6040820190508181035f8301526156868185614e92565b9050615695602083018461565f565b9392505050565b5f6040820190508181035f8301526156b48185614e92565b90506156c36020830184613ea9565b9392505050565b5f6156d482613ac4565b91506156df83613ac4565b92508282026156ed81613ac4565b9150828204841483151761570457615703614eea565b5b5092915050565b5f8160011c9050919050565b5f808291508390505b60018511156157605780860481111561573c5761573b614eea565b5b600185161561574b5780820291505b80810290506157598561570b565b9450615720565b94509492505050565b5f826157785760019050615833565b81615785575f9050615833565b816001811461579b57600281146157a5576157d4565b6001915050615833565b60ff8411156157b7576157b6614eea565b5b8360020a9150848211156157ce576157cd614eea565b5b50615833565b5060208310610133831016604e8410600b84101617156158095782820a90508381111561580457615803614eea565b5b615833565b6158168484846001615717565b9250905081840481111561582d5761582c614eea565b5b81810290505b9392505050565b5f61584482613ac4565b915061584f83613ac4565b925061587c7fffffffffffffffffffffffffffffffffffffffffffffffffffffffffffffffff8484615769565b905092915050565b5f61588e82613ac4565b915061589983613ac4565b9250826158a9576158a8614f7d565b5b828204905092915050565b5f60ff82169050919050565b5f6158ca826158b4565b91506158d5836158b4565b9250826158e5576158e4614f7d565b5b828204905092915050565b5f6158fa826158b4565b9150615905836158b4565b9250828202615913816158b4565b915080821461592557615924614eea565b5b5092915050565b5f615936826158b4565b9150615941836158b4565b9250828203905060ff81111561595a57615959614eea565b5b92915050565b5f6040820190508181035f8301526159788185614e92565b9050818103602083015261598c8184614e92565b90509392505050565b5f6159a76159a284613b87565b613b6d565b9050828152602081018484840111156159c3576159c2613afb565b5b6159ce848285614e84565b509392505050565b5f82601f8301126159ea576159e9613af7565b5b81516159fa848260208601615995565b91505092915050565b5f60208284031215615a1857615a17613abc565b5b5f82015167ffffffffffffffff811115615a3557615a34613ac0565b5b615a41848285016159d6565b91505092915050565b5f615a54826158b4565b9150615a5f836158b4565b9250828201905060ff811115615a7857615a77614eea565b5b9291505056fe636c616d704c742063616e6e6f7420636c616d702076616c7565206120746f206265206c657373207468616e207a65726f2e20436865636b20796f757220696e707574732f617373756d7074696f6e732e636c616d7047742063616e6e6f7420636c616d702076616c7565206120746f206265206c6172676572207468616e2075696e743235362e6d61782e20436865636b20796f757220696e707574732f617373756d7074696f6e732ea2646970667358221220d40c86c9c78314970358970936bcf2946eea2f6a29b7ffe31005c9bc8b762a9464736f6c63430008190033","linkReferences":{}},"methodIdentifiers":{"abs(int128)":"e01e92d2","abs(int256)":"1b5ac4b5","assertRevertReasonEqual(bytes,string)":"42068767","assertRevertReasonEqual(bytes,string,string)":"846213a1","assertRevertReasonEqual(bytes,string,string,string)":"8010bad3","assertRevertReasonEqual(bytes,string,string,string,string)":"72de77b5","assertRevertReasonNotEqual(bytes,string)":"1059bfc9","clamp(int256,int256,int256)":"7b8d0f0c","clamp(int256,int256,int256,bool)":"09fd3899","clamp(uint256,uint256,uint256)":"9e422447","clamp(uint256,uint256,uint256,bool)":"06cb0011","clampGt(int256,int256)":"f09ced97","clampGt(int256,int256,bool)":"953e5e80","clampGt(uint256,uint256)":"fb9894b2","clampGt(uint256,uint256,bool)":"1b55d07c","clampGte(int256,int256)":"7e1ddd80","clampGte(int256,int256,bool)":"2d40851e","clampGte(uint256,uint256)":"e894090d","clampGte(uint256,uint256,bool)":"2e17d472","clampLt(int256,int256)":"f01ff64c","clampLt(int256,int256,bool)":"2ffde603","clampLt(uint256,uint256)":"f5bc3a71","clampLt(uint256,uint256,bool)":"b2f9799d","clampLte(int256,int256)":"ac0c207b","clampLte(int256,int256,bool)":"084ec410","clampLte(uint256,uint256)":"c5df2a37","clampLte(uint256,uint256,bool)":"eef25389","diff(int256,int256)":"568c1385","diff(uint256,uint256)":"8f5e514a","eq(address,address,string)":"3ccb5e26","eq(bool,bool,string)":"df7cd77f","eq(bytes4,bytes4,string)":"6c9764b3","eq(int256,int256,string)":"14ec1cc6","eq(uint256,uint256,string)":"bc8d43a8","errAllow(bytes4,bytes4[],string)":"88e362c6","errsAllow(bytes4,bytes4[],string[])":"b09c41b7","gt(int256,int256,string)":"d2a50604","gt(uint256,uint256,string)":"5c2b80f5","gte(int256,int256,string)":"3b6ddf03","gte(uint256,uint256,string)":"841ea11c","log(string)":"41304fac","log(string,address)":"319af333","log(string,bool)":"c3b55635","log(string,bytes)":"23cdd8e8","log(string,bytes32)":"3692d61a","log(string,int256)":"3ca6268e","log(string,string)":"4b5c4277","log(string,uint256)":"b60e72cc","logFail()":"de9b2232","logFail(string)":"aeef9c21","logFail(string,address)":"f0f4b652","logFail(string,bool)":"04fbe1c5","logFail(string,bytes)":"f5c466f6","logFail(string,bytes32)":"1fc4755e","logFail(string,int256)":"a98283e4","logFail(string,string)":"942732b2","logFail(string,uint256)":"213cde2c","lt(int256,int256,string)":"06f82342","lt(uint256,uint256,string)":"01b9e827","lte(int256,int256,string)":"1ba0399b","lte(uint256,uint256,string)":"bb35031a","max(int256,int256)":"81fe5786","max(uint256,uint256)":"6d5433e6","min(uint256,uint256)":"7ae2b5c7","neq(int256,int256,string)":"c0e8def2","neq(uint256,uint256,string)":"8c4fb57d","platform()":"4bde38c8","setPlatform(address)":"6945c5ea","shuffleArray(uint256[],uint256)":"6ace552c","t(bool,string)":"a15f9f07"},"storageLayout":{"storage":[{"astId":40604,"contract":"lib/fuzzlib/src/Fuzzlib.sol:Fuzzlib","label":"platform","offset":0,"slot":"0","type":"t_contract(IPlatform)42257"}],"types":{"t_contract(IPlatform)42257":{"encoding":"inplace","label":"contract IPlatform","numberOfBytes":"20"}}},"id":25}